:100000000C9478010C94BC010C94D7010C94BC01A5
:100010000C94BC010C94BC010C94BC010C94BC016C
:100020000C94BC010C94BC010C94E3140C94BC0122
:100030000C94BC010C94BC010C94BC010C94BC014C
:100040000C94BC010C94BC010C94BC010C94BC013C
:100050000C94BC0129003B003D003F0041004300DF
:1000600045004700AE003A003C003E004000420020
:1000700044004C00AC00AB0035001F002100230001
:10008000250027002E00490054001E0020002200F9
:10009000240026002D002A00530055002B001A00D2
:1000A00015001C000C00130030004B006000140011
:1000B00008001700180012002F0031005F006100D7
:1000C0000151160009000B000E00330000004E0025
:1000D0005D00040007000A000D000F003400280036
:1000E0005C005E00E1001D00060005001000370006
:1000F000000052005A0031001B00190011003600A8
:100100003800E50059005B00E000E20039005700CC
:100110000000E700E40051006200E3002C005600FC
:100120005800E600015150004F006300A800A900EC
:10013000010001000100010001004600AD00AA001D
:100140000100010001000100010048000100010060
:100150000100010001000100010001000100010097
:100160000100010001000100010001000100010087
:10017000B2000100010001000100010001000100C6
:1001800001004A000100010001000100010001001E
:100190000100010001000100010001000100010057
:1001A0000100010000004D000100010001000100FC
:1001B0000100010001000100010001000100010037
:1001C00001000100010001000000BD00010001006C
:1001D0000100010001000100010001000100010017
:1001E0000100010001000100000001000100BE004B
:1001F00001000100010001000100010001000100F7
:100200000100850009023B00020100A0FA09040078
:100210000001030101000921010100012240000742
:100220000581030800010904010001030000000921
:100230002101010001223200070583030800011299
:1002400001100100000008EDFE69870100010203B2
:100250000104033000000012035200410042004537
:10026000004C0049005500530000000C035200618F
:1002700000620065006C0000000403090405010928
:1002800080A101850319012AB700150126B7009541
:100290000175108100C0050C0901A1018504190137
:1002A0002AA002150126A002950175108100C00543
:1002B000010906A101050719E029E71500250195A7
:1002C0000875018102950175088103050719002948
:1002D000FF150026FF009506750881000508190125
:1002E0002905950575019102950175039103C000DB
:1002F00011241FBECFE5D8E0DEBFCDBF04B603FE9C
:1003000024C08091AD029091AE02A091AF02B09155
:10031000B0028730904BA740B04BB9F41092AD02B9
:100320001092AE021092AF021092B00214BE84B7C7
:10033000877F84BF0FB6F894A89581B5886181BD89
:1003400011BC0FBEE0E0F8E3099510E0A0E6B0E0D4
:10035000E2EFF0E302C005900D92A63EB107D9F797
:1003600022E0A6EEB0E001C01D92AD3AB207E1F77F
:100370000E9462150C9459180C940000A82FB92FF4
:1003800080E090E041E050EA609530E009C02D91B6
:1003900082279795879510F084279527305EC8F3BC
:1003A0006F5FA8F30895EADF8D939D930895CF932F
:1003B000CFB7CF93DF93C395839BE9F7839B10C09F
:1003C000839B0EC0839B0CC0839B0AC0839B08C089
:1003D000839B06C0C0918402C395C09384028EC0E3
:1003E0006F93C0918302DD27C557DD4F2F9365E5DD
:1003F000839B03C02F916F91E1CF0F931F934F9376
:1004000020E040E15F9300B30C7003FB27F93F93BA
:1004100050E03BE039C01C7040642F77012F5F5FD4
:100420001EC0406810B31C702F7752501FC040642C
:1004300000B32F770C70D1F15F5F00C023C0406222
:1004400010B32F771C7091F15F5F00C025C00C7056
:100450001027515012F45D5F0000115027952C3F7A
:1004600010B3C8F61C700127015027952C3FC8F621
:100470004227499300B30C7010274F7311502795F2
:100480002C3FA8F64695469510B31C7079F00127CD
:10049000015027952C3F98F66B5A60F3315000B30A
:1004A000B0F600C010E81ABF00271CC03B503195C1
:1004B000C31BD04010E81ABF0881033C21F10B3464
:1004C00011F1209181021981110F1213EDCF4A8190
:1004D000441F093669F10D3211F0013E29F74F70C2
:1004E00009F0042F009389023F915F914F911F9172
:1004F0000F912F916F91CAB7C7FD5DCFDF91CF915B
:10050000CFBFCF91189520918902222369F31091D2
:1005100087021123E9F53430EAF130938702209302
:100520008202109183023BE0311B3093830232C080
:1005300000918702013064F50AE54F7049F430916B
:100540006D0034FD28C000936D00CAE6D2E027C0DC
:10055000433049F03091750234FD1DC0009375029F
:10056000C6E7D2E01CC03091A10234FD14C0009354
:10057000A102C2EAD2E013C0052710E000C00000CB
:1005800002BB1AC0052710E0221F1DC010E021C0C9
:100590004AE502C032ED432FC4E1D0E032E011B3AE
:1005A0001C60939A02B311BB5CE020E865E320FF76
:1005B000052702BB279517951C3FF0F66695B8F7FF
:1005C000B1F720FF052702BB279517951C3FD0F6F2
:1005D0002795179517FF052700001C3F02BBB0F6B3
:1005E00029913A9519F7037F10918802110FC6518E
:1005F000D04002BB11F01093810210E81ABF0860CE
:1006000011B3137F402F437F54E05A95F1F702BB9B
:1006100011BB42BB69CF81E0089581E008950C943D
:100620000D0308950C9411031F93CF93DF9300D013
:1006300000D00F92CDB7DEB749835A836B833091D8
:100640000C0189819A8131111DC06623B9F02223E2
:10065000A9F00E946912182F682F89819A810E943F
:10066000151269817A81812F0F900F900F900F9052
:100670000F90DF91CF911F910C94C6030E944112FD
:10068000182FEFCF0E94691269817A81EDCFFC01AA
:10069000262F408151816281738184810C941403DF
:1006A000CF93DF93EC0160E00E944703BE01DF912E
:1006B000CF910C9412030E941C150E94B313811158
:1006C00002C00E9450140C94C9050C94CC050895E6
:1006D0000C94670381E008950C946A03CF93C82FAC
:1006E0000E9468038C2FCF910C946C0308950E9494
:1006F0007F0D0E9476032FEF84E39CE02150804021
:100700009040E1F700C000000C9407150F931F9371
:10071000CF93DF93EC0161E00E9447038C01BE019F
:100720000E940F03882329F1BE01C8010E946307BC
:100730008823F9F0BE01C8010E94A4078823C9F0EC
:10074000BE01C8010E94C708882399F08A818823C6
:1007500039F001158CE5180751F00E3D1C4579F074
:10076000CE01DF91CF911F910F910C940B030E944A
:10077000770380E0DF91CF911F910F9108950E9440
:100780005014F7CF90E080E008950895972F70E01F
:1007900029E0929F600D711D1124FB019CE6899F49
:1007A000E00DF11D1124EE0FFF1FEC5AFF4F859154
:1007B00094910895FC01EE0FFF1FEC5FFD4F8591B2
:1007C00094910895CF93DF930E94C6030E94EE0494
:1007D000EC01811520E5920708F041C0811530E455
:1007E000930708F0B4C0803E910518F5803C910550
:1007F00008F09DC0883A910570F4853A910508F09B
:100800008EC081309105F9F00097E9F00497D8F493
:10081000D0E0C0E018C08F3B9105D0F7C85AD0E0B7
:10082000CC0FDD1FC259DF4F0990D881C02DD46491
:100830000AC08115904258F4C11581E0D80718F418
:10084000C83ED10528F7CE01DF91CF910895C1159B
:1008500090E3D90708F071C0CE019F706AC081157E
:1008600025E5920758F5811534E5930708F09EC0F9
:10087000811542E5940750F4C11581E5D80708F4C5
:1008800069C0DC2FCC27C16FD06ADDCF982F969539
:1008900096959E0123703327C115D34508F077C084
:1008A000C1E0D0E002C0CC0FDD1F2A95E2F720E2C4
:1008B000929FC0011124C82BD92B67C0C11589E5AF
:1008C000D807A8F4C11598E5D90708F074C0C11578
:1008D00026E5D20708F09CCF8C2F0E948505C82FF3
:1008E000D0E0DC2FCC27CC27DF71D062ACCFC11594
:1008F0003AE5D30708F464C0CE01905681159042C2
:1009000008F086CF8D2F8F710E94850590E0982F7B
:10091000882788279F719C012C2BE901E6CFC55AB7
:10092000D0E0C456DF4FC881D0E0D0648CCF805C6B
:1009300091090E94DA03EC0186CFCE019927D3FFFB
:1009400003C0EC01D86C7FCFEC01D06C7CCFDF70A2
:10095000D06A79CFCE01E4E096958795EA95E1F7E4
:1009600083702C2F26952695237090E2299F900165
:100970001124382B8C2F8370C1E0D0E002C0CC0F43
:10098000DD1F8A95E2F7C22BD32BDC685CCFC1E078
:10099000D0E002C0CC0FDD1F2A95E2F730E2939F32
:1009A000C0011124C82BD92BDA684DCFD82FCC2702
:1009B000C46FD06A48CFDC2FCC27C06FD06A43CF3A
:1009C0008C2F8F700E94850534E0D695C7953A9597
:1009D000E1F7CF709C2FEC01D06935CF82389105BB
:1009E000B1F1B0F48133910509F475C048F489324E
:1009F000910509F469C08A32910509F473C008951C
:100A00008533910509F459C08933910501F10895A1
:100A1000833E9105A9F138F4803E9105F9F0823EBC
:100A2000910549F10895863E9105A9F1873E91050A
:100A3000C9F1843E910519F52091690221FF1FC07B
:100A40008091680284FD14C087EE90E008952091A3
:100A500068022370A1F080EE90E008952091680272
:100A600020FD47C03091690230FF09C024FF44C017
:100A700090E080E004C02091680222FDF7CF089545
:100A80002091680222FD3BC03091690230FDE3CF26
:100A900024FFF5CFEDCF2091680223FFF0CF24FD96
:100AA000E7CFD2CF2091680223FD2CC0309169029C
:100AB00031FFEECF84EE90E008952091680225FF8B
:100AC000DECF89E290E008952091680225FFD7CF1C
:100AD00085E390E008952091680226FFD0CF8AE256
:100AE00090E008952091680226FFC9CF81E390E04D
:100AF000089589E390E0089583EE90E0089582EEF2
:100B000090E0089586EE90E008959091680292FF3B
:100B100006C0282F28712830F9F4877F846093FF5E
:100B200006C0282F28712831F1F4877E8461209136
:100B3000690220FF06C0382F38713830D9F4877F1A
:100B4000816021FF06C0282F28712831D1F4877ECB
:100B5000816194FD877E0895282F24712430F9F651
:100B60008B7F8860DCCF282F2471243101F78B7EA6
:100B70008861DDCF382F3171313019F78E7F886071
:100B8000E0CF282F2171213121F78E7E8861E1CFBE
:100B900008950C94C80508950C94CB05E82FF0E057
:100BA000EE0FFF1FE45BFD4F808191810895089552
:100BB00080EA8A95F1F70895A8EAB0E061E070E074
:100BC0008D91E82FE295EF70F0E041A98F709B01C5
:100BD00001C0220F8A95EAF7922F9095942391AB4A
:100BE00082A9822B82AB80E0A43BB80749F7AFE92A
:100BF000B0E061E070E08D91E82FE295EF70F0E0F9
:100C000041A98F709B0101C0220F8A95EAF7922FAC
:100C10009095942391AB82A9822B82AB80E0A83A75
:100C2000B80749F7E4E3F2E0ACE4B2E08CE492E028
:100C3000119211921D921D928E179F07C9F78CE099
:100C40000E94BC060C945B034F925F926F927F925E
:100C50008F929F92AF92BF92CF92DF92EF92FF92CC
:100C60000F931F93CF93DF9304E312E098EAC92E0A
:100C700090E0D92E912CAA24A394B12CD8016D9088
:100C80007C90F801119211928F01D6018D916D0126
:100C9000C82FC295CF70D0E099A98F70750101C09F
:100CA000EE0C8A95EAF7892F8E2989AB8AA98E2CBA
:100CB000809488218AAB0E94D8058FE9482E80E075
:100CC000582E30E020E0F8013297D2016D912D01CD
:100CD000862F82958F7090E0DC01D0968C914081B8
:100CE000518190E06F7002C0959587956A95E2F703
:100CF00080FD3FC0C501022E02C0880F991F0A94D3
:100D0000E2F7842B952B918380832F5F3F4F29300F
:100D10003105D9F689A9882289AA8AA9E82AEAAAE6
:100D200081E0208131812615370509F480E0982A79
:100D3000B2E00C341B0709F0A1CF292D4CE06CE484
:100D400072E084E392E00E94BD060E946503892D53
:100D5000DF91CF911F910F91FF90EF90DF90CF9097
:100D6000BF90AF909F908F907F906F905F904F90CB
:100D7000089590E080E0C5CF0895FF920F931F93F0
:100D8000CF93DF93F82E092F162FD72FC42F2223AE
:100D900049F081E08093E8000E94C8149093E70036
:100DA0008093E6008091E8008823A1F08091E6001E
:100DB0009091E7000E94D414069760F0EF2DF02F79
:100DC000A12FBD2F90E080E0D0E08C179D0744F06C
:100DD0001092E800DF91CF911F910F91FF9008953D
:100DE000219131912D933D930196EFCF0F931F9356
:100DF000CF93DF93C62FD42F022FFC01828188234B
:100E0000C9F06093EB000E94C8149093EA008093AD
:100E1000E90080E28C0F883008F050C0C77081E094
:100E200001C0880FCA95EAF7DF91CF911F910F910A
:100E30000C94220B1091EB00161335C08091E90041
:100E40009091EA000E94D414883C910560F5C0E2BC
:100E5000CD0F1D17B9F080E2810F883040F4177074
:100E600081E001C0880F1A95EAF70E94290BC8306B
:100E700048F481E09D2F977001C0880F9A95EAF79A
:100E80000E94220B802F0E940F0BC830B8F4D7703D
:100E900081E001C0880FDA95EAF7DF91CF911F91C9
:100EA0000F910C94290B80E28C0F883038F4C770B6
:100EB00081E001C0880FCA95EAF7EFCFDF91CF91AB
:100EC0001F910F9108959C01CB01233F4CE53407FE
:100ED00031F190F4283DFCE53F07E9F0293D4CE570
:100EE000340769F1273D3C4579F426E241EE61EE95
:100EF0000E94F60680E00895253FFCE53F07B9F023
:100F000090F0263F3C45B9F0FC0182818823D1F066
:100F10001092EB00089527E245EE65EEE9CF26E258
:100F200041EE60EEE5CF27E245EE64EEE1CF26E24A
:100F300041EE62EEDDCF27E245EE66EED9CF28E244
:100F400041E0EBCF81E00895CF93DF93EC01FB010B
:100F50008281882309F419C1C230FCE5DF07C0F1A2
:100F6000C6319CE5D90730F09E012A5F3C45293007
:100F7000310570F50E94C613909369028093680250
:100F8000C031ECE5DE0709F4CFC008F05BC0C83023
:100F90008CE5D80709F4B6C088F5C430ECE5DE0767
:100FA00009F4A8C0C0F4C2308CE5D80709F49CC08D
:100FB000809168028260C330DC4509F498C080915A
:100FC0006802909169020E94D4130E947F0D80E014
:100FD000DF91CF910895809168028061C630ECE581
:100FE000DE0709F484C0809168028860C730DC4560
:100FF00008F47DC080916802806279C0CC308CE5B5
:10100000D80709F489C070F4809168028C60CA30F6
:10101000ECE5DE0709F46BC008F478C08091680243
:101020008E7F65C0CE308CE5D80709F479C08091F9
:1010300068028B7FCF30DC4508F459C0809168028C
:101040008F7E55C0CB3FECE5DE0709F457C030F585
:10105000C3318CE5D80709F46FC078F4C131ECE5F1
:10106000DE0709F465C0C231DC4509F0A8CF0E9453
:101070007F0D809168028F773AC0C5318CE5D80723
:1010800009F462C008F476C0809169028160CA3FA9
:10109000DC4509F094CF8093690291CFCF3FFCE506
:1010A000DF0709F44DC088F4809169028D7FCD3F40
:1010B0009CE5D90781F3809169028E7FCE3FDC45A4
:1010C00050F3809169028360E6CFC130FDE5DF0710
:1010D00009F459C008F444C080E0C230DD4509F08D
:1010E0006ECF0E9452146BCF809168028160809312
:1010F000680265CF809168028460F9CF80916902AF
:101100008260C9CF809168028064F1CF0E947F0D18
:10111000809168028068EBCF809168028D7FE7CF75
:1011200080916802877FE3CF809168028F7DDFCF57
:10113000809168028F7BDBCF80916802837FD7CF5D
:10114000809169028C7FA7CF8091680282FB9927EA
:1011500090F921E0922790FB82F990FB83F9C7CFA9
:1011600080916902982F909591708E7F892B90FBCA
:1011700081F991CF0E947F0D90916802892F97FB92
:1011800087F98058B4CF81E0ACCF81E021CFCF93F5
:10119000DF93EB0186319C4511F50E94FE129A8186
:1011A000992399F08A7A91E009F490E09093EC0009
:1011B000811109C089E20E94D9120E944A1380E07D
:1011C000DF91CF91089585E3F6CF8091EC008111F6
:1011D00004C089E20E94E012F0CF85E3FBCF81E0FA
:1011E000EFCF9093F2008093F1000895E091F10029
:1011F000F091F200309721F00190F081E02D0994F8
:1012000080E00895E091F100F091F200309721F034
:101210000280F381E02D099408952091EF00309130
:10122000F0002817390771F09093F0008093EF00D9
:10123000E091F100F091F200309721F00680F78103
:10124000E02D099408952091ED003091EE002817CB
:10125000390771F09093EE008093ED00E091F1007A
:10126000F091F200309721F00084F185E02D09948F
:10127000089584B7806884BF84B7806884BF089568
:10128000089508950C94400908950C9444090E940F
:1012900039090E9441090C94420981E008950E9495
:1012A000C1140E94DC050E9430150C9445097F9200
:1012B0008F929F92AF92BF92CF92DF92EF92FF9266
:1012C0000F931F93CF93DF93CDB7DEB72A970FB657
:1012D000F894DEBF0FBECDBF0E9424060E944D09C8
:1012E000882309F46FC044EFA42E40E0B42E10E030
:1012F00000E0702E802F0E94CE056C01F5018190D8
:1013000091905F018816990609F456C08091A0015A
:1013100081FD0E94D70580E0EE24E394F12C8C241B
:101320009D2494012E213F21232B09F43FC08E835D
:101330007F82CE20DF2081E0CD2809F480E08887FD
:101340000E94C8148160782F9A8789874E815F81B7
:1013500068858A850E94070A000F111FF801EC506A
:10136000FF4F80819181E826F926F182E0820E9478
:10137000F6089091F3008917B1F10E94F608809366
:10138000F3002A960FB6F894DEBF0FBECDBFDF91F3
:10139000CF911F910F91FF90EF90DF90CF90BF9072
:1013A000AF909F908F907F900C946E038F5FEE0CA8
:1013B000FF1C893009F0B5CF0F5F1F4F0C301105AE
:1013C00009F097CF8FEF89838A831B820E94C8140C
:1013D0008160782F9D838C8349815A816B818D81B7
:1013E0000E94070AC4CF2A960FB6F894DEBF0FBE3C
:1013F000CDBFDF91CF911F910F91FF90EF90DF90C4
:10140000CF90BF90AF909F908F907F900895CF9393
:10141000DF93CDB7DEB72B970FB6F894DEBF0FBEC4
:10142000CDBF4F83588769877A878B871E821D823D
:1014300085E0FE013796DE01119601900D928A95A6
:10144000E1F749815A816B817C818D819E812B9648
:101450000FB6F894DEBF0FBECDBFDF91CF910C94D5
:10146000F50FFC01808191810C94AB12CF93C82FB2
:10147000882309F483C08238C1F40E94F60881FDF4
:101480007DC089E30E94D9120E944A132FEF81EE9A
:1014900094E0215080409040E1F700C0000089E3D3
:1014A0000E94E012CF910C944A138338A1F40E9459
:1014B000F60880FD63C083E50E94D9120E944A139A
:1014C0002FEF81EE94E0215080409040E1F700C082
:1014D000000083E5E5CF8438A1F40E94F60882FD80
:1014E0004DC087E40E94D9120E944A132FEF81EE6B
:1014F00094E0215080409040E1F700C0000087E474
:10150000CFCF8CEF8C0F813A90F46C2F80916000DC
:10151000909161000E946914882329F08C2F0E9409
:10152000E0120E944A138C2F0E94D912BBCF80E296
:101530008C0F883048F4C77081E001C0880FCA95CD
:10154000EAF70E940113AECFEBE5EC0FE33040F475
:10155000F0E0EE51FF4F808190E0CF910C940D09A7
:10156000C85AC73158F4EC2FF0E0EE0FFF1FEC54CF
:10157000FF4F80819181CF910C942309CF910895E1
:10158000882309F44BC0823871F40E94F60881FF69
:1015900045C089E30E94D9120E944A1389E30E9440
:1015A000E0120C944A13833859F40E94F60880FF25
:1015B00035C083E50E94D9120E944A1383E5EFCF1C
:1015C000843859F40E94F60882FF28C087E40E94FC
:1015D000D9120E944A1387E4E2CF9CEF980F913A08
:1015E000F0F290E2980F983050F4877091E001C0CB
:1015F000990F8A95EAF7892F0E940713D2CF9BE5AE
:10160000980F933020F490E080E00C940D09885AF4
:10161000873120F490E080E00C9423090895CF9363
:10162000C82F0E94360AC93349F42FEF87EE93E0A2
:10163000215080409040E1F700C000008C2FCF91F6
:101640000C94C00A882321F00E9401130C944A13C1
:101650000895882321F00E9407130C944A130895DB
:10166000BF92CF92DF92EF92FF920F931F93CF938F
:10167000DF936C01D62FC72FFC01058102950F70F7
:10168000128111110E941E130E94F712E82E882366
:1016900071F01123B1F080E28D0F883090F082E07C
:1016A0000E9495130E94F71291E0E82EE926BC2EC5
:1016B000B2949FE0B922EB2DF0E0E55AF74E0C947E
:1016C0001218E12CF4CF0C2F0F70C07F11F002958F
:1016D000007F1123A9F0002359F080E28D0F88309C
:1016E00010F0D11109C0802F0E9401130E944A13EB
:1016F0008D2F0E94360A14C0802F0E941113F6CF3E
:101700008D2F0E94C00A002359F080E28D0F88308F
:1017100010F0D1112CC0802F0E9407130E944A1391
:101720002B2D2850330B2430310520F40E94F6086D
:101730000E946E03EE2009F493C10E94F31280FD13
:101740008FC1F60112820E94ED120E947911C6012A
:101750000E94510D0E94ED12DF91CF911F910F91C8
:10176000FF90EF90DF90CF90BF900C949A11802F54
:101770000E941713D3CFFC2FFF70FF2EC07FC03203
:1017800019F0F29480EFF822DD2369F0D13049F1AD
:10179000112391F1002351F1F601858180FFA8CF3B
:1017A0008F70858323C0112381F0011106C00E9430
:1017B00031138F290E94220BB3CF0130C1F70E9451
:1017C00031138F290E943713ABCF011106C00E943D
:1017D00040138F2D0E94290BA3CF013009F4A0CF15
:1017E000F6CF112329F0063008F09ACF8F2DE2CFE3
:1017F000053008F095CFEDCF002359F3D93349F4E4
:10180000FFEF27EE33E0F15020403040E1F700C019
:1018100000008D2F0E94C00A83CF8C2F869586955D
:10182000837069F0813009F07BCF8D2F9C2F9370EE
:10183000111102C090E080E00E94230971CF8D2F2A
:101840009C2F9370111102C090E080E00E940D095E
:1018500067CF8C2F837009F041C0111161CF4D2FDC
:10186000429546954770440F440F0D2F0F7010E0BE
:1018700030E020E0042E04C0000F111F221F331F90
:101880000A94D2F760E070E0CB01D4FF0FC06FE0A4
:1018900070E080E090E004C0660F771F881F991FFA
:1018A0004A95D2F76095709580959095C695C695A6
:1018B000C370602B712B822B932BC23049F058F4EC
:1018C000C13019F00E942B112BCF0E94191128CF83
:1018D0000E943D1125CF0E94171122CF869511231A
:1018E00011F08C2F8170882309F41ACF4D2F429567
:1018F00046954770440F440F0D2F0F7010E030E0F5
:1019000020E0042E04C0000F111F221F331F0A9471
:10191000D2F760E070E0CB01D4FF0FC06FE070E061
:1019200080E090E004C0660F771F881F991F4A95DA
:10193000D2F76095709580959095C695C695C370C1
:10194000602B712B822B932BC23049F058F4C1309D
:1019500019F00E94F011E4CE0E94DE11E1CE0E9447
:101960000212DECE0E945311DBCECF70112329F07C
:101970008C2F0E9479118D2F1DCF8D2F0E94290B46
:101980008C2F0E949A11CCCED23F89F160F4D03FC7
:10199000C9F0D13F29F1112309F442C00111A8CEA9
:1019A0008C2F8F7121C0D33F39F1D43FA1F7112380
:1019B00069F1CF718C2F0E94791163E08C2F0E9406
:1019C0008013AECE112341F0053008F0A9CE8C2F44
:1019D0008F710E94BD11A4CE063008F0A1CEF7CFC2
:1019E0008C2F8F71112369F20E94791199CE8C2F5F
:1019F0008F711123C9F3C5CF112329F08C2F8F715B
:101A00000E9464118DCE0E945F118ACE81E00E94F7
:101A10009513023008F484CE82E00E94951380CEA4
:101A2000002359F0D93309F0F4CE8FEF97EEE3E0BD
:101A300081509040E040E1F7EACE8C2F8F71A1CF2A
:101A40004C2F4F706D2FC6010E94C2030E948F1051
:101A500067CE4C2F4F706D2FC6010E94C50360CE1C
:101A6000DF91CF911F910F91FF90EF90DF90CF907A
:101A7000BF9008950F931F93CF93DF93EC0168817C
:101A800079818A810E94B5128C010E9414120E94F1
:101A90001611B801CE01DF91CF911F910F910C94D7
:101AA000300BCF93DF93EC018B819C81892B29F044
:101AB0008881998189238F3F19F4DF91CF9108950F
:101AC000CE010E9486038823C1F3CE010E943A0D05
:101AD000CE01DF91CF910C9450030E941E130E94FF
:101AE0002E130E944A1390E080E00E940D0990E0BE
:101AF00080E00C9423090E94E7120C946D0D0E9463
:101B00000E130C947B0DE92FE295EF70E250EE304E
:101B100070F4F0E0E559F74E0C941218803F19F07C
:101B200020F4883E20F481E00895843FE1F380E0D2
:101B30000895883EC0F3813FD1F7F5CF93FB882706
:101B400080F908950E94AB120C94830DCF93DF931C
:101B500000D000D00F92CDB7DEB70F900F900F904E
:101B60000F900F90DF91CF910895CF93DF9300D026
:101B700000D000D0CDB7DEB726960FB6F894DEBF02
:101B80000FBECDBFDF91CF9108951F93CF93DF9309
:101B9000C0910D0116E080910E018C1304C0DF91FD
:101BA000CF911F910895D0E01C9FF0011D9FF00D73
:101BB0001124E15FFE4F40815181628173818481F4
:101BC00095810E94B50D2196C770E5CF40913F01E8
:101BD0005091400160914101709142018091430117
:101BE000909144010C94B50D1F93CF93DF93809196
:101BF0004401807FA9F480914101882389F080917C
:101C00000D01C0910E0160913F0170914001A091C2
:101C10004201B0914301D62FD72316E0C81304C068
:101C2000DF91CF911F91089590E0109711F0DF3F61
:101C300019F401968770F2CF189F9001199F300D0B
:101C40001124F901E15FFE4F41814713F2CF40813A
:101C50004613EFCF42814111ECCF438154814A1B9F
:101C60005B0B483C510528F7809144018F708061DF
:101C700080934401F901EC5EFE4F80818F7080619A
:101C800080838FE391E00E94510DDF91CF911F91EE
:101C90000C94C50DAF92BF92CF92DF92EF92FF925C
:101CA0000F931F93CF93DF93CDB7DEB761970FB636
:101CB000F894DEBF0FBECDBF8C0185E0F801DE01D8
:101CC0001D9601900D928A95E1F7F80140815181AE
:101CD000E2808FE3C82E81E0D82E6091420170919E
:101CE00043016115710509F461C190913F01209193
:101CF0004001892F82238F3F09F458C1A380B4800B
:101D0000F0904101F501E61BF70BFF2009F4FCC040
:101D100080914401382F307FE83CF10508F0B2C0D3
:101D2000311179C0FE2C251323C0941321C0E1107A
:101D30001FC08F708061809344010E94E60DC60130
:101D40000E94510D80914401F80185838F2D619689
:101D50000FB6F894DEBF0FBECDBFDF91CF911F91BC
:101D60000F91FF90EF90DF90CF90BF90AF900895CC
:101D7000AB2829F0842F85238F3F09F033C180E001
:101D8000F82FF170DF2E80FF3CC080910D01209173
:101D90000E0136E0821315C04D875E878D859E85C6
:101DA0000E94AB12292F22952F702230F0F02430A0
:101DB00018F59F70F1F0F8019581907FD1F4D12C46
:101DC0001EC090E0389FF001399FF00D1124E15FB3
:101DD000FE4F6181651306C06081641303C0628198
:101DE0006E110FC001968770D5CF9F7011F08823B8
:101DF00031F3805E883018F3C8010E94510DFD2C2C
:101E0000A5CFEE2009F4A2CF809144018160809398
:101E10004401F12C9BCF251306C0941304C0F80194
:101E2000EE2009F48DC04D875E878D859E850E94CA
:101E3000A20D882319F1EE2009F18091440180322E
:101E400070F020913F013091400138872F8319862F
:101E5000BB86AA868C87CE0107960E94510D86E02C
:101E6000F801AFE3B1E001900D928A95E1F70E948D
:101E7000F40D0E94E60DFF24F39468CFC8010E9480
:101E8000510DF9CF311113C07A2DB98AA88A6E2D60
:101E900089890E94A60D8FE391E00E94510D86E092
:101EA000F60111928A95E9F70E94E60DB2CF25134B
:101EB0000FC094130DC0E1100BC0F8018583C80159
:101EC0000E94510D86E0F60111928A95E9F73ECF06
:101ED0004D875E878D859E850E94A20D882371F2B5
:101EE000EE2061F280914401803208F4B8CF209155
:101EF0003F01309140013A8329831B82BD82AC822D
:101F00008E83CE010196A9CFE83CF10508F041C0CF
:101F1000FE2CEE2009F4B2CF25132AC0941328C05A
:101F20008091440180FD1BC0982F907FC1F0F80183
:101F30008583903F31F0982F907F905F8F70892B31
:101F40008583C8010E94510D86E0F801AFE3B1E03E
:101F500001900D928A95E1F70E94E60DF7CE86E09A
:101F6000F801AFE3B1E001900D928A95E1F7EECE72
:101F70004D875E878D859E850E94A20D81116FCF52
:101F800080914401816080934401C8010E94510DF9
:101F9000DDCE7A2DB98AA88A6E2D89890E94A60D78
:101FA00086E0F60111928A95E9F7D6CFEE2009F482
:101FB00065CF4D875E878D859E850E94A20DF82E88
:101FC000882309F45BCF86E0F801AFE3B1E001902C
:101FD0000D928A95E1F78FE391E00E94310A0E9409
:101FE000F40DBACF81E08E25CBCE1F93CF93DF9334
:101FF000CDB7DEB72C970FB6F894DEBF0FBECDBFBE
:102000004F83588769877A878B879C87CE0107968D
:102010000E944A0E882369F08A859B85892B39F0B6
:102020004F815885842F85238F3F09F071C016E0BA
:102030005FC086E0FE013796DE01119601900D9299
:102040008A95E1F78A859B85892B89F388859F810D
:1020500089238F3F61F320910E0130E0C901019681
:102060008770992740910D014817190671F40E9455
:102070007F0D10920E0110920D0186E0EFE3F1E06A
:10208000DF011D928A95E9F7D2CF96E0929FD001A9
:10209000939FB00D1124A15FBE4FFE0131960190B8
:1020A0000D929A95E1F780930E010E94C50DBFCF66
:1020B000819FC0011124815F9E4F0E944A0E882398
:1020C000E9F0E0910D011E9FF0011124E15FFE4F48
:1020D0004081518162817381848195810E94B50D17
:1020E00080910D0190E001968770992780930D01F2
:1020F00080910D0190910E018913DACF2C960FB6C5
:10210000F894DEBF0FBECDBFDF91CF911F91089530
:1021100069857A858B859C850E94B50D88CFEF9265
:10212000FF920F931F93CF93DF938C01892B81F044
:10213000F12CEE24E394E8012196F8018491843790
:1021400070F4843008F05FC08130B1F08230A1F1CA
:10215000DF91CF911F910F91FF90EF9008958537F8
:1021600009F44CC008F43DC09CE7980F903780F705
:102170008F770E94C00A49C00E5F1F4FFE018491F5
:1021800090E2980F983060F48770FE2D01C0FF0F29
:102190008A95EAF78F2F0E9421130E944A1302C0EA
:1021A0000E94360A8F2D815030F2EFE9FFE031971F
:1021B000F1F700C00000F7CF0E5F1F4FFE018491C2
:1021C00090E2980F983050F48770FE2D01C0FF0FF9
:1021D0008A95EAF78F2F0E942713DFCF0E94C00A4B
:1021E000E1CF0E5F1F4FFE01C491C150D8F28FE9BD
:1021F0009FE00197F1F700C00000F7CF0E5F1F4F7F
:10220000FE01F490CFCF0E94360A8E01CBCF089505
:102210000C9407110E94081160938F017093900134
:1022200080939101909392010C946D0D08950C94FC
:102230000A110F931F9300918F011091900120912B
:10224000910130919201602B712B822B932B1F9166
:102250000F910C940A110F931F9300918F0110910D
:10226000900120919101309192016023712382238A
:1022700093231F910F910C940A110F931F930091B8
:102280008F0110919001209191013091920160276E
:102290007127822793271F910F910C940A110C9498
:1022A00007110C944F110E94511160938B01709390
:1022B0008C0180938D0190938E010C946D0D60E0E4
:1022C00070E0CB010C9453110F931F9341E050E049
:1022D00060E070E08A019B0104C0000F111F221F03
:1022E000331F8A95D2F7C901B8011F910F910C9441
:1022F00053110F931F9341E050E060E070E004C081
:10230000440F551F661F771F8A95D2F780918B0166
:1023100090918C01A0918D01B0918E018A019B0159
:10232000082B192B2A2B3B2BC901B8011F910F91A8
:102330000C9453110F931F9341E050E060E070E064
:1023400004C0440F551F661F771F8A95D2F7CB0133
:10235000BA01609570958095909500918B011091D0
:102360008C0120918D0130918E0160237123822395
:1023700093231F910F910C9453110F931F9341E0DE
:1023800050E060E070E004C0440F551F661F771FE7
:102390008A95D2F780918B0190918C01A0918D014B
:1023A000B0918E018A019B01082719272A273B2714
:1023B000C901B8011F910F910C9453110F931F93F2
:1023C00000918B0110918C0120918D0130918E0133
:1023D000602B712B822B932B1F910F910C94531117
:1023E0000F931F9300918B0110918C0120918D010F
:1023F00030918E0160237123822393231F910F91CB
:102400000C9453110F931F9300918B0110918C0129
:1024100020918D0130918E016027712782279327AB
:102420001F910F910C945311089529E0929F800DF4
:102430001124982F977041E001C0440F9A95EAF754
:1024400086958695869595E0899FF0011124EB5B32
:10245000FE4F90E080E070E05191DF0111979B0109
:10246000082E02C0369527950A94E2F7217021952F
:102470002527242325272C9301968530910561F784
:10248000089529E0929F800D1124982F97708695CA
:102490008695869525E0829FF0011124EB5BFE4F27
:1024A00050E040E080E0219130E0092E02C03695F6
:1024B00027950A94E2F721703327042E01C0220FDA
:1024C0000A94EAF7822B4F5F5F4F4530510559F769
:1024D0000895BF92CF92DF92EF92FF920F931F93D6
:1024E000CF93DF938C01C0908B01D0908C01E09052
:1024F0008D01F0908E0180918F0190919001A091BB
:102500009101B0919201C82AD92AEA2AFB2ACFE187
:10251000D0E0BC2ED701C6010C2E04C0B695A795FD
:10252000979587950A94D2F780FD0EC0219788F77A
:10253000B12C8B2DDF91CF911F910F91FF90EF90D8
:10254000DF90CF90BF900895B8018C2F0E94E203D6
:10255000019761F3EECFCF93DF93EC010E946912F4
:10256000BE01DF91CF910C94E2031F93CF93DF93D1
:10257000EB0190910C01992331F0CB01DF91CF91C8
:102580001F910C94AB12882379F0CB010E94691241
:10259000182F682FCE010E941512BE01812FDF91E6
:1025A000CF911F910C94E203CB010E944112182F8E
:1025B000F4CF682F80916000909161000C949F147B
:1025C000682F80916000909161000C94A11480911B
:1025D0006000909161000C94A31480919301859503
:1025E00085958595089580919301877008959091C0
:1025F0009301977081E009F480E0089580919F0134
:10260000089590919F01892B80939F010895809553
:1026100090919F01982390939F01089510929F019C
:10262000089590919E01892B80939E010895809535
:1026300090919E01982390939E01089510929E017F
:10264000089590919D01892B80939D010895809517
:1026500090919D01982390939D01089510929D0162
:10266000089580919401089508950C9434139091E5
:102670009401981721F0809394010C9435130895D8
:1026800080919401882329F01092940180E00C94A9
:1026900035130895E0916000F091610080919F01F1
:1026A0008083E0916000F0916100808190919E01B3
:1026B000892B8083E0916000F0916100808190918E
:1026C0009D01892B808390919401992381F0E09161
:1026D0006000F09161008081892B8083809160008F
:1026E000909161000E94571481110E9440138091C3
:1026F0006000909161000C94020908950C947D1380
:1027000098E0899F90011124622B609393010E94AD
:102710007911809193018595859585950C947E130B
:102720001092930180E00C947E1390919301809518
:10273000892380939301282F277071F4282F082E66
:10274000000C330B9217130639F085958595859506
:102750000E949A110C94901308956FEF7FEF90E010
:1027600080E00C94431890E080E00E94201821E063
:102770008C3E9E4F09F020E0822F089582E090E089
:102780000C94181883E090E00C941818CF9384E010
:1027900090E00E941818C82F81E290E00E9418185B
:1027A000982F8C2FCF910895CF93C92F682F84E055
:1027B00090E00E9426186C2F81E290E0CF910C945B
:1027C0002618AB01BC018FE090E00C943718AB01E8
:1027D000BC0183E190E00C94371860E070E0CB011D
:1027E0000C94E71360E070E0CB010E94E1130C94BD
:1027F000ED136CEE7EEF90E080E00E94431860E005
:1028000082E090E00E94261860E083E090E00E9461
:10281000261810928F01109290011092910110923F
:10282000920160E084E090E00E94261860E081E27E
:1028300090E00E94261860E085E090E00E94261853
:1028400060E086E090E00E9426186FEF87E090E05D
:102850000E94261840E050E0BA0188E090E00E9413
:10286000371860E08DE090E00E94261840E050E0CC
:10287000BA0188E190E00E94371860E087E190E0BB
:102880000E94261840E050E0BA018CE190E00E94DE
:10289000371860E080E290E00E9426180C94F21352
:1028A0000C94F913682F8EE090E00C9426189C018C
:1028B0002E5F3F4FAC01485F5F4F80E02417350724
:1028C00009F40895F90191919F019923B9F38F5F5C
:1028D000F5CF662349F0FC01329608962191261720
:1028E00029F0E817F907D1F780E0089581E008950D
:1028F0009C01FC0132969FEF80E04191461751F018
:102900009F3F19F4411101C0982F8F5F8630A9F7BE
:102910009F3F09F40895290F311D97FD3A95F9015C
:1029200062830895FC01329608962191261303C014
:10293000DF0111971C92E817F907B9F708950C9475
:1029400078140C949214029626E0FC0111922A95B8
:10295000E9F7089508950895CF930E94AA140E945C
:1029600024060E94AB14C0E08C2F0E94CE05892B58
:1029700031F4CF5FCC30C1F780E0CF91089581E092
:10298000FCCF8BE083BF8AEF8CBF82E089BF0895C4
:102990002FB7F8948091640290916502A09166022D
:1029A000B09167022FBF08959C014FB7F8948091B2
:1029B000640290916502A0916602B09167024FBFD8
:1029C000821B930B089578941F921FB61F921124B7
:1029D0008F939F93AF93BF93809164029091650210
:1029E000A0916602B09167020196A11DB11D80936E
:1029F000640290936502A0936602B0936702BF9150
:102A0000AF919F918F911F901FBE1F90189588E1E5
:102A100098E00FB6F894A89581BD0FBE91BDA8951A
:102A2000F894D8E0CEE528E3299320E0299314BE5A
:102A3000FFCF08950C94AD130E9424068FE39CE908
:102A40000197F1F700C000000E94240680E00E9478
:102A5000CE0580FF04C00E941A150C940715089536
:102A60000E94B313811102C00E9450140E94BE1331
:102A70008093A0010E94C61390936902809368021C
:102A80000E94C213682F70E090E080E00C94171150
:102A9000F89421B3939A822F8C6081BB92B33CE06F
:102AA000932792BB4FE788E391E0415080409040EC
:102AB000E1F700C0000082B3832782BB21BB93985B
:102AC000789408950E94C8148C010E9447090E94BE
:102AD00027160E94F1080E94FF178B9A80E0815010
:102AE00031F48B9878940E944F09C0E009C0A895F2
:102AF000EFE9FFE03197F1F700C00000F0CFC1E04F
:102B000080918402882399F0109284020E94C81454
:102B10008C010E940D1780918A02882329F08091F0
:102B2000750284FD0E9457090E94DB15DECFC801A3
:102B30000E94D414069710F4CC2359F30E94AC14CD
:102B4000C82F8823E1F20E944815DACF8091320223
:102B500008950895CF93DF9300D00F92CDB7DEB7DD
:102B60009091A301981307C02091A1013091A20177
:102B70002617370791F08093A3017093A201609309
:102B8000A10189837B836A838091A10284FF05C0B0
:102B900063E0CE0101960E9409170F900F900F90ED
:102BA000DF91CF910895BC0184E00C94AA15BC017B
:102BB00083E00C94AA15CF93DF93CAE0D0E0809114
:102BC000750284FF1AC08091AF019091B0019817EF
:102BD00089F028E0829FC001112468E08F549E4F45
:102BE0000E9405178091AF0190E001968F709927A0
:102BF0008093AF01DF91CF9108950E940D178FE967
:102C00009FE00197F1F700C000002197C1F6F2CFD5
:102C1000FC01A091B001B0E09D012F5F3F4F2F70EC
:102C200033278091AF01821771F083E0AA0FBB1F99
:102C30008A95E1F7AF54BE4F98E001900D929A95B6
:102C4000E1F72093B0010E940D170C94DB1582E68A
:102C500090E00895FC01808180768032D1F48181FA
:102C6000813041F487EA91E0909386028093850257
:102C700088E00895823041F481E392E090938602E7
:102C80008093850281E008958A3029F483818093BE
:102C9000310280E008958930E1F7828193818115C6
:102CA000924069F484819581892B49F481E0809375
:102CB000A601868197819093A5018093A4018FEF4F
:102CC0000895FC018091A4019091A501892B61F0E8
:102CD0008091A601813041F490819093320210924C
:102CE000A5011092A40108958FEF08950895FC01A5
:102CF0009381933059F130F49130C1F09230F1F07A
:102D000080E00895913209F440C09232C9F784817D
:102D10009581009709F44AC0019791F78DE792E0F9
:102D2000909386028093850282E308958FE392E078
:102D3000909386028093850282E1089584E092E078
:102D400090938602809385028BE30895828181307F
:102D500089F0882339F08230A9F0833089F681E543
:102D600092E002C089E792E0909386028093850208
:102D700084E008958BE692E090938602809385022A
:102D80008CE0089587E592E0D3CF8281882331F0EB
:102D9000813009F0B5CF8FE292E002C086E192E087
:102DA000909386028093850289E008958FEA92E0ED
:102DB000909386028093850280E408951F93CF93B9
:102DC000DF93E82F792F162FEA01888184FF1AC03C
:102DD000298188E828272983CE010296DC012E2F3D
:102DE000372F412F4E0FF90121912D939F014E1343
:102DF000FACF612F0E94D3011C5F1883DF91CF911E
:102E00001F9108958AE58883E7CF45E752E00C9447
:102E1000DE1641EA52E00C94DE16CF93DF93609108
:102E20008702635067FD12C080918302CCE0D0E03E
:102E3000C81BD109C557DD4F80918202803108F04F
:102E400054C0CE010E9476161092870280916D00C8
:102E500084FF3EC080916C008F3FD1F1C82F893034
:102E600008F0C8E0982F9C1B90936C0090916A0228
:102E700028E8922790936A028823E9F080918502DE
:102E800090918602209133023C2F380F26FFAAC072
:102E9000FC01ABE6B2E024912D9331963E13FBCFBB
:102EA0002FEF2C0F30E02F5F3F4F820F931F909337
:102EB0008602809385026C2F8BE692E00E94D301FC
:102EC000CC5FCC3019F08FEF80936C00C0936D0015
:102ED00084E190B39C7031F48150D9F7109288024C
:102EE00010928102DF91CF9108958D3209F067C071
:102EF000683009F0A9CF83EC80936A028AE5809359
:102F00006D00109233028881807671F0CE010E94AC
:102F10002A168F3FC1F4988197FD8E8190E8909397
:102F2000330280936C0090CF2A81109273029981B2
:102F3000911111C01092740223E732E082E03093C5
:102F40008602209385029F819111EBCF9E81981775
:102F500040F7892FE6CF953029F42093880223E7A4
:102F600032E0EDCF963099F49B81913021F4CE017F
:102F70000E94771608C09230D1F39330C1F391329A
:102F8000B1F39232A1F390E490933302C2CF983020
:102F900079F0993019F420938A02E1CF9A3061F0E8
:102FA0009B30E9F69BE4909376029093A202D7CFF0
:102FB0002AE832E081E0C3CF23E732E0FBCF809103
:102FC000330287FF41CFCE010E9461168F3F21F46B
:102FD0008EE180936D0038CF882309F435CF1092AD
:102FE0006C0032CFABE6B2E0282F492FE22FF42F4E
:102FF00021912D932E2F4F2F3E13F8CF51CF85B710
:10300000886085BF8BB780688BBFA5E7B2E08BE493
:1030100011968C931197E1EAF2E081838AE58C9313
:1030200080830895EE0FFF1F0590F491E02D099421
:10303000E199FECF9FBB8EBBE09A99278DB308958F
:10304000A8E1B0E042E050E00C944B18262FE19943
:10305000FECF9FBB8EBBE09A01970DB2021631F0F6
:103060002DBB0FB6F894E29AE19A0FBE089503962D
:10307000272F0E9427180E942618252F0E94271804
:10308000242F0C9427180196272F0E9427180C94A0
:103090002618DC01CB01FC01E199FECF06C0FFBB85
:1030A000EEBBE09A31960DB20D9241505040B8F708
:1030B0000895F894FFCF630B630BBB0BBB0B0D0C98
:1030C000900B900B900B290CB50CC40CC40C200D6C
:1030D000900B900B290D8E0D8E0D970D970D990D60
:1030E000970D970D970D8E0D8E0D9E0D970D970DCB
:0230F0009E0D33
:1030F2009501A6150816A915D715D315FF5AE20092
:10310200E900EA00B500B600B700CD008301CC00AB
:103112008A0192019401210223022402250226023D
:1031220027022A02B300B4006F0070008182830676
:103132003505363701003433649663959062919475
:1031420092616093E200E900EA00B500B600B700C0
:10315200CD008301CC008A01920194012102230255
:1031620024022502260227022A02B300B4006F00BD
:0631720070008182830061
:00000001FF
